{
  "address": "0x9fE46736679d2D9a65F0992F2272dE9f3c7fa6e0",
  "abi": [
    {
      "inputs": [
        {
          "internalType": "address",
          "name": "_vrfCoordinator",
          "type": "address"
        },
        {
          "internalType": "address",
          "name": "_linkToken",
          "type": "address"
        },
        {
          "internalType": "bytes32",
          "name": "_keyHash",
          "type": "bytes32"
        },
        {
          "internalType": "uint256",
          "name": "_chainlinkFee",
          "type": "uint256"
        },
        {
          "internalType": "uint256",
          "name": "_entranceFee",
          "type": "uint256"
        },
        {
          "internalType": "uint256",
          "name": "_interval",
          "type": "uint256"
        }
      ],
      "stateMutability": "nonpayable",
      "type": "constructor"
    },
    {
      "anonymous": false,
      "inputs": [
        {
          "indexed": true,
          "internalType": "address",
          "name": "previousOwner",
          "type": "address"
        },
        {
          "indexed": true,
          "internalType": "address",
          "name": "newOwner",
          "type": "address"
        }
      ],
      "name": "OwnershipTransferred",
      "type": "event"
    },
    {
      "anonymous": false,
      "inputs": [
        {
          "indexed": true,
          "internalType": "address",
          "name": "player",
          "type": "address"
        }
      ],
      "name": "enteredRaffle",
      "type": "event"
    },
    {
      "anonymous": false,
      "inputs": [
        {
          "indexed": true,
          "internalType": "bytes32",
          "name": "requestId",
          "type": "bytes32"
        }
      ],
      "name": "requestedRaffleWinner",
      "type": "event"
    },
    {
      "anonymous": false,
      "inputs": [
        {
          "indexed": true,
          "internalType": "address",
          "name": "player",
          "type": "address"
        }
      ],
      "name": "winnerPicked",
      "type": "event"
    },
    {
      "inputs": [
        {
          "internalType": "bytes",
          "name": "",
          "type": "bytes"
        }
      ],
      "name": "checkUpkeep",
      "outputs": [
        {
          "internalType": "bool",
          "name": "upkeepNeeded",
          "type": "bool"
        },
        {
          "internalType": "bytes",
          "name": "",
          "type": "bytes"
        }
      ],
      "stateMutability": "view",
      "type": "function"
    },
    {
      "inputs": [],
      "name": "enterRaffle",
      "outputs": [],
      "stateMutability": "payable",
      "type": "function"
    },
    {
      "inputs": [],
      "name": "owner",
      "outputs": [
        {
          "internalType": "address",
          "name": "",
          "type": "address"
        }
      ],
      "stateMutability": "view",
      "type": "function"
    },
    {
      "inputs": [
        {
          "internalType": "bytes",
          "name": "",
          "type": "bytes"
        }
      ],
      "name": "performUpkeep",
      "outputs": [],
      "stateMutability": "nonpayable",
      "type": "function"
    },
    {
      "inputs": [
        {
          "internalType": "bytes32",
          "name": "requestId",
          "type": "bytes32"
        },
        {
          "internalType": "uint256",
          "name": "randomness",
          "type": "uint256"
        }
      ],
      "name": "rawFulfillRandomness",
      "outputs": [],
      "stateMutability": "nonpayable",
      "type": "function"
    },
    {
      "inputs": [],
      "name": "renounceOwnership",
      "outputs": [],
      "stateMutability": "nonpayable",
      "type": "function"
    },
    {
      "inputs": [],
      "name": "s_chainlinkFee",
      "outputs": [
        {
          "internalType": "uint256",
          "name": "",
          "type": "uint256"
        }
      ],
      "stateMutability": "view",
      "type": "function"
    },
    {
      "inputs": [],
      "name": "s_entranceFee",
      "outputs": [
        {
          "internalType": "uint256",
          "name": "",
          "type": "uint256"
        }
      ],
      "stateMutability": "view",
      "type": "function"
    },
    {
      "inputs": [],
      "name": "s_interval",
      "outputs": [
        {
          "internalType": "uint256",
          "name": "",
          "type": "uint256"
        }
      ],
      "stateMutability": "view",
      "type": "function"
    },
    {
      "inputs": [],
      "name": "s_keyHash",
      "outputs": [
        {
          "internalType": "bytes32",
          "name": "",
          "type": "bytes32"
        }
      ],
      "stateMutability": "view",
      "type": "function"
    },
    {
      "inputs": [],
      "name": "s_lastTimeStamp",
      "outputs": [
        {
          "internalType": "uint256",
          "name": "",
          "type": "uint256"
        }
      ],
      "stateMutability": "view",
      "type": "function"
    },
    {
      "inputs": [
        {
          "internalType": "uint256",
          "name": "",
          "type": "uint256"
        }
      ],
      "name": "s_players",
      "outputs": [
        {
          "internalType": "address payable",
          "name": "",
          "type": "address"
        }
      ],
      "stateMutability": "view",
      "type": "function"
    },
    {
      "inputs": [],
      "name": "s_recentWinner",
      "outputs": [
        {
          "internalType": "address",
          "name": "",
          "type": "address"
        }
      ],
      "stateMutability": "view",
      "type": "function"
    },
    {
      "inputs": [
        {
          "internalType": "address",
          "name": "newOwner",
          "type": "address"
        }
      ],
      "name": "transferOwnership",
      "outputs": [],
      "stateMutability": "nonpayable",
      "type": "function"
    }
  ],
  "transactionHash": "0x38dea8eca348932ce78ee56b150ff59d5569d0d349d2917c15e976a55d0b3232",
  "args": [
    "0xe7f1725E7734CE288F8367e1Bb143E90bb3F0512",
    "0x5FbDB2315678afecb367f032d93F642f64180aa3",
    "0x6c3699283bda56ad74f6b855546325b68d482e983852a7a82979cc4807b641f4",
    "100000000000000000",
    "100000000000000000",
    "60"
  ],
  "solcInputHash": "302922b26f6f33082c7a0fa6b9381384",
  "bytecode": "0x60c06040523480156200001157600080fd5b5060405162001d1a38038062001d1a833981810160405281019062000037919062000211565b8585620000596200004d6200010060201b60201c565b6200010860201b60201c565b8173ffffffffffffffffffffffffffffffffffffffff1660a08173ffffffffffffffffffffffffffffffffffffffff1660601b815250508073ffffffffffffffffffffffffffffffffffffffff1660808173ffffffffffffffffffffffffffffffffffffffff1660601b8152505050506001600281905550426006819055508360038190555082600481905550816005819055508060078190555050505050505062000348565b600033905090565b60008060009054906101000a900473ffffffffffffffffffffffffffffffffffffffff169050816000806101000a81548173ffffffffffffffffffffffffffffffffffffffff021916908373ffffffffffffffffffffffffffffffffffffffff1602179055508173ffffffffffffffffffffffffffffffffffffffff168173ffffffffffffffffffffffffffffffffffffffff167f8be0079c531659141344cd1fd0a4f28419497f9722a3daafe3b4186f6b6457e060405160405180910390a35050565b600081519050620001dd81620002fa565b92915050565b600081519050620001f48162000314565b92915050565b6000815190506200020b816200032e565b92915050565b60008060008060008060c08789031215620002315762000230620002f5565b5b60006200024189828a01620001cc565b96505060206200025489828a01620001cc565b95505060406200026789828a01620001e3565b94505060606200027a89828a01620001fa565b93505060806200028d89828a01620001fa565b92505060a0620002a089828a01620001fa565b9150509295509295509295565b6000620002ba82620002cb565b9050919050565b6000819050919050565b600073ffffffffffffffffffffffffffffffffffffffff82169050919050565b6000819050919050565b600080fd5b6200030581620002ad565b81146200031157600080fd5b50565b6200031f81620002c1565b81146200032b57600080fd5b50565b6200033981620002eb565b81146200034557600080fd5b50565b60805160601c60a05160601c61199162000389600039600081816107be01526109db01526000818161041e01528181610604015261099f01526119916000f3fe6080604052600436106100dd5760003560e01c80638638b0c61161007f578063a2eaacac11610059578063a2eaacac1461026a578063ae771f6b14610295578063cc9b2ea3146102d2578063f2fde38b146102fd576100dd565b80638638b0c6146101eb5780638da5cb5b1461021657806394985ddd14610241576100dd565b806345bb327b116100bb57806345bb327b146101405780636e04ff0d1461016b578063715018a6146101a957806374f5c551146101c0576100dd565b80632cfcc539146100e257806334854043146100ec5780634585e33b14610117575b600080fd5b6100ea610326565b005b3480156100f857600080fd5b50610101610413565b60405161010e9190611457565b60405180910390f35b34801561012357600080fd5b5061013e60048036038101906101399190610f4f565b610419565b005b34801561014c57600080fd5b506101556105f3565b60405161016291906112ee565b60405180910390f35b34801561017757600080fd5b50610192600480360381019061018d9190610f9c565b6105f9565b6040516101a09291906112be565b60405180910390f35b3480156101b557600080fd5b506101be6106df565b005b3480156101cc57600080fd5b506101d5610767565b6040516101e29190611457565b60405180910390f35b3480156101f757600080fd5b5061020061076d565b60405161020d919061124a565b60405180910390f35b34801561022257600080fd5b5061022b610793565b604051610238919061124a565b60405180910390f35b34801561024d57600080fd5b5061026860048036038101906102639190610f0f565b6107bc565b005b34801561027657600080fd5b5061027f610858565b60405161028c9190611457565b60405180910390f35b3480156102a157600080fd5b506102bc60048036038101906102b79190610fe5565b61085e565b6040516102c99190611265565b60405180910390f35b3480156102de57600080fd5b506102e761089d565b6040516102f49190611457565b60405180910390f35b34801561030957600080fd5b50610324600480360381019061031f9190610eb5565b6108a3565b005b60055434101561036b576040517f08c379a0000000000000000000000000000000000000000000000000000000008152600401610362906113f7565b60405180910390fd5b6009339080600181540180825580915050600190039060005260206000200160009091909190916101000a81548173ffffffffffffffffffffffffffffffffffffffff021916908373ffffffffffffffffffffffffffffffffffffffff1602179055503373ffffffffffffffffffffffffffffffffffffffff167fd78f827cd914f7521fd97ac8d75e9ab6f080fdcbf7b6cd63e599b59233e6106f60405160405180910390a2565b60065481565b6004547f000000000000000000000000000000000000000000000000000000000000000073ffffffffffffffffffffffffffffffffffffffff166370a08231306040518263ffffffff1660e01b8152600401610475919061124a565b60206040518083038186803b15801561048d57600080fd5b505afa1580156104a1573d6000803e3d6000fd5b505050506040513d601f19601f820116820180604052508101906104c59190611012565b1015610506576040517f08c379a00000000000000000000000000000000000000000000000000000000081526004016104fd906113b7565b60405180910390fd5b600047101561054a576040517f08c379a0000000000000000000000000000000000000000000000000000000008152600401610541906113d7565b60405180910390fd5b6000610564604051806020016040528060008152506105f9565b509050806105a7576040517f08c379a000000000000000000000000000000000000000000000000000000000815260040161059e90611377565b60405180910390fd5b4260068190555060006105be60035460045461099b565b9050807fbbca18c548a2c61f84b4952325e9a98137abda7582e5a05f4d50e073f7975f3160405160405180910390a250505050565b60035481565b6000606060006004547f000000000000000000000000000000000000000000000000000000000000000073ffffffffffffffffffffffffffffffffffffffff166370a08231306040518263ffffffff1660e01b815260040161065b919061124a565b60206040518083038186803b15801561067357600080fd5b505afa158015610687573d6000803e3d6000fd5b505050506040513d601f19601f820116820180604052508101906106ab9190611012565b10159050600754600654426106c09190611556565b1180156106ca5750805b80156106d7575060004710155b925050915091565b6106e7610afc565b73ffffffffffffffffffffffffffffffffffffffff16610705610793565b73ffffffffffffffffffffffffffffffffffffffff161461075b576040517f08c379a000000000000000000000000000000000000000000000000000000000815260040161075290611417565b60405180910390fd5b6107656000610b04565b565b60045481565b600860009054906101000a900473ffffffffffffffffffffffffffffffffffffffff1681565b60008060009054906101000a900473ffffffffffffffffffffffffffffffffffffffff16905090565b7f000000000000000000000000000000000000000000000000000000000000000073ffffffffffffffffffffffffffffffffffffffff163373ffffffffffffffffffffffffffffffffffffffff161461084a576040517f08c379a000000000000000000000000000000000000000000000000000000000815260040161084190611437565b60405180910390fd5b6108548282610bc8565b5050565b60055481565b6009818154811061086e57600080fd5b906000526020600020016000915054906101000a900473ffffffffffffffffffffffffffffffffffffffff1681565b60075481565b6108ab610afc565b73ffffffffffffffffffffffffffffffffffffffff166108c9610793565b73ffffffffffffffffffffffffffffffffffffffff161461091f576040517f08c379a000000000000000000000000000000000000000000000000000000000815260040161091690611417565b60405180910390fd5b600073ffffffffffffffffffffffffffffffffffffffff168173ffffffffffffffffffffffffffffffffffffffff16141561098f576040517f08c379a000000000000000000000000000000000000000000000000000000000815260040161098690611397565b60405180910390fd5b61099881610b04565b50565b60007f000000000000000000000000000000000000000000000000000000000000000073ffffffffffffffffffffffffffffffffffffffff16634000aea07f000000000000000000000000000000000000000000000000000000000000000084866000604051602001610a0f929190611309565b6040516020818303038152906040526040518463ffffffff1660e01b8152600401610a3c93929190611280565b602060405180830381600087803b158015610a5657600080fd5b505af1158015610a6a573d6000803e3d6000fd5b505050506040513d601f19601f82011682018060405250810190610a8e9190610ee2565b506000610ab1846000306001600089815260200190815260200160002054610d17565b9050600180600086815260200190815260200160002054610ad29190611500565b6001600086815260200190815260200160002081905550610af38482610d53565b91505092915050565b600033905090565b60008060009054906101000a900473ffffffffffffffffffffffffffffffffffffffff169050816000806101000a81548173ffffffffffffffffffffffffffffffffffffffff021916908373ffffffffffffffffffffffffffffffffffffffff1602179055508173ffffffffffffffffffffffffffffffffffffffff168173ffffffffffffffffffffffffffffffffffffffff167f8be0079c531659141344cd1fd0a4f28419497f9722a3daafe3b4186f6b6457e060405160405180910390a35050565b600060098054905082610bdb9190611675565b9050600060098281548110610bf357610bf2611704565b5b9060005260206000200160009054906101000a900473ffffffffffffffffffffffffffffffffffffffff16905060008173ffffffffffffffffffffffffffffffffffffffff1647604051610c4690611235565b60006040518083038185875af1925050503d8060008114610c83576040519150601f19603f3d011682016040523d82523d6000602084013e610c88565b606091505b5050905081600860006101000a81548173ffffffffffffffffffffffffffffffffffffffff021916908373ffffffffffffffffffffffffffffffffffffffff1602179055508173ffffffffffffffffffffffffffffffffffffffff167f794919b0f484b8e90b1b817ac7f880f846fbd8a9813dee2a378e820db094e3d160405160405180910390a25050505050565b600084848484604051602001610d309493929190611332565b6040516020818303038152906040528051906020012060001c9050949350505050565b60008282604051602001610d68929190611209565b60405160208183030381529060405280519060200120905092915050565b6000610d99610d9484611497565b611472565b905082815260208101848484011115610db557610db4611771565b5b610dc08482856115ee565b509392505050565b600081359050610dd7816118ff565b92915050565b600081519050610dec81611916565b92915050565b600081359050610e018161192d565b92915050565b60008083601f840112610e1d57610e1c611767565b5b8235905067ffffffffffffffff811115610e3a57610e39611762565b5b602083019150836001820283011115610e5657610e5561176c565b5b9250929050565b600082601f830112610e7257610e71611767565b5b8135610e82848260208601610d86565b91505092915050565b600081359050610e9a81611944565b92915050565b600081519050610eaf81611944565b92915050565b600060208284031215610ecb57610eca61177b565b5b6000610ed984828501610dc8565b91505092915050565b600060208284031215610ef857610ef761177b565b5b6000610f0684828501610ddd565b91505092915050565b60008060408385031215610f2657610f2561177b565b5b6000610f3485828601610df2565b9250506020610f4585828601610e8b565b9150509250929050565b60008060208385031215610f6657610f6561177b565b5b600083013567ffffffffffffffff811115610f8457610f83611776565b5b610f9085828601610e07565b92509250509250929050565b600060208284031215610fb257610fb161177b565b5b600082013567ffffffffffffffff811115610fd057610fcf611776565b5b610fdc84828501610e5d565b91505092915050565b600060208284031215610ffb57610ffa61177b565b5b600061100984828501610e8b565b91505092915050565b6000602082840312156110285761102761177b565b5b600061103684828501610ea0565b91505092915050565b6110488161159c565b82525050565b6110578161158a565b82525050565b611066816115ae565b82525050565b611075816115ba565b82525050565b61108c611087826115ba565b611661565b82525050565b600061109d826114c8565b6110a781856114d3565b93506110b78185602086016115fd565b6110c081611780565b840191505092915050565b60006110d86011836114ef565b91506110e382611791565b602082019050919050565b60006110fb6026836114ef565b9150611106826117ba565b604082019050919050565b600061111e600f836114ef565b915061112982611809565b602082019050919050565b6000611141600e836114ef565b915061114c82611832565b602082019050919050565b60006111646025836114ef565b915061116f8261185b565b604082019050919050565b60006111876020836114ef565b9150611192826118aa565b602082019050919050565b60006111aa601f836114ef565b91506111b5826118d3565b602082019050919050565b60006111cd6000836114e4565b91506111d8826118fc565b600082019050919050565b6111ec816115e4565b82525050565b6112036111fe826115e4565b61166b565b82525050565b6000611215828561107b565b60208201915061122582846111f2565b6020820191508190509392505050565b6000611240826111c0565b9150819050919050565b600060208201905061125f600083018461104e565b92915050565b600060208201905061127a600083018461103f565b92915050565b6000606082019050611295600083018661104e565b6112a260208301856111e3565b81810360408301526112b48184611092565b9050949350505050565b60006040820190506112d3600083018561105d565b81810360208301526112e58184611092565b90509392505050565b6000602082019050611303600083018461106c565b92915050565b600060408201905061131e600083018561106c565b61132b60208301846111e3565b9392505050565b6000608082019050611347600083018761106c565b61135460208301866111e3565b611361604083018561104e565b61136e60608301846111e3565b95945050505050565b60006020820190508181036000830152611390816110cb565b9050919050565b600060208201905081810360008301526113b0816110ee565b9050919050565b600060208201905081810360008301526113d081611111565b9050919050565b600060208201905081810360008301526113f081611134565b9050919050565b6000602082019050818103600083015261141081611157565b9050919050565b600060208201905081810360008301526114308161117a565b9050919050565b600060208201905081810360008301526114508161119d565b9050919050565b600060208201905061146c60008301846111e3565b92915050565b600061147c61148d565b90506114888282611630565b919050565b6000604051905090565b600067ffffffffffffffff8211156114b2576114b1611733565b5b6114bb82611780565b9050602081019050919050565b600081519050919050565b600082825260208201905092915050565b600081905092915050565b600082825260208201905092915050565b600061150b826115e4565b9150611516836115e4565b9250827fffffffffffffffffffffffffffffffffffffffffffffffffffffffffffffffff0382111561154b5761154a6116a6565b5b828201905092915050565b6000611561826115e4565b915061156c836115e4565b92508282101561157f5761157e6116a6565b5b828203905092915050565b6000611595826115c4565b9050919050565b60006115a7826115c4565b9050919050565b60008115159050919050565b6000819050919050565b600073ffffffffffffffffffffffffffffffffffffffff82169050919050565b6000819050919050565b82818337600083830152505050565b60005b8381101561161b578082015181840152602081019050611600565b8381111561162a576000848401525b50505050565b61163982611780565b810181811067ffffffffffffffff8211171561165857611657611733565b5b80604052505050565b6000819050919050565b6000819050919050565b6000611680826115e4565b915061168b836115e4565b92508261169b5761169a6116d5565b5b828206905092915050565b7f4e487b7100000000000000000000000000000000000000000000000000000000600052601160045260246000fd5b7f4e487b7100000000000000000000000000000000000000000000000000000000600052601260045260246000fd5b7f4e487b7100000000000000000000000000000000000000000000000000000000600052603260045260246000fd5b7f4e487b7100000000000000000000000000000000000000000000000000000000600052604160045260246000fd5b600080fd5b600080fd5b600080fd5b600080fd5b600080fd5b600080fd5b6000601f19601f8301169050919050565b7f55706b656570206e6f74206e6565646564000000000000000000000000000000600082015250565b7f4f776e61626c653a206e6577206f776e657220697320746865207a65726f206160008201527f6464726573730000000000000000000000000000000000000000000000000000602082015250565b7f4e6f7420656e6f756768204c494e4b0000000000000000000000000000000000600082015250565b7f4e6f7420656e6f75676820455448000000000000000000000000000000000000600082015250565b7f4e6f7420656e6f7567682076616c75652073656e7420746f20656e746572207260008201527f6166666c65000000000000000000000000000000000000000000000000000000602082015250565b7f4f776e61626c653a2063616c6c6572206973206e6f7420746865206f776e6572600082015250565b7f4f6e6c7920565246436f6f7264696e61746f722063616e2066756c66696c6c00600082015250565b50565b6119088161158a565b811461191357600080fd5b50565b61191f816115ae565b811461192a57600080fd5b50565b611936816115ba565b811461194157600080fd5b50565b61194d816115e4565b811461195857600080fd5b5056fea26469706673582212201bf38d13f0ec5948e8b203517c00fcb6725c4e000a53a13c79f6b3ee2a9b90c664736f6c63430008070033",
  "devdoc": {
    "kind": "dev",
    "methods": {
      "checkUpkeep(bytes)": {
        "details": "This is the function that the Chainlink Keeper nodes call they look for `upkeepNeeded` to return True the following should be true for this to return true: 1. The time interval has passed between raffle runs 2. The contract has LINK 3. The contract has ETH"
      },
      "owner()": {
        "details": "Returns the address of the current owner."
      },
      "performUpkeep(bytes)": {
        "details": "Once `checkUpkeep` is returning `true`, this function is called and it kicks off a Chainlink VRF call to get a random winner"
      },
      "renounceOwnership()": {
        "details": "Leaves the contract without owner. It will not be possible to call `onlyOwner` functions anymore. Can only be called by the current owner. NOTE: Renouncing ownership will leave the contract without an owner, thereby removing any functionality that is only available to the owner."
      },
      "transferOwnership(address)": {
        "details": "Transfers ownership of the contract to a new account (`newOwner`). Can only be called by the current owner."
      }
    },
    "version": 1
  },
  "userdoc": {
    "kind": "user",
    "methods": {},
    "version": 1
  },
  "storageLayout": {
    "storage": [
      {
        "astId": 292,
        "contract": "contracts/Raffle.sol:Raffle",
        "label": "_owner",
        "offset": 0,
        "slot": "0",
        "type": "t_address"
      },
      {
        "astId": 79,
        "contract": "contracts/Raffle.sol:Raffle",
        "label": "nonces",
        "offset": 0,
        "slot": "1",
        "type": "t_mapping(t_bytes32,t_uint256)"
      },
      {
        "astId": 399,
        "contract": "contracts/Raffle.sol:Raffle",
        "label": "_status",
        "offset": 0,
        "slot": "2",
        "type": "t_uint256"
      },
      {
        "astId": 467,
        "contract": "contracts/Raffle.sol:Raffle",
        "label": "s_keyHash",
        "offset": 0,
        "slot": "3",
        "type": "t_bytes32"
      },
      {
        "astId": 469,
        "contract": "contracts/Raffle.sol:Raffle",
        "label": "s_chainlinkFee",
        "offset": 0,
        "slot": "4",
        "type": "t_uint256"
      },
      {
        "astId": 471,
        "contract": "contracts/Raffle.sol:Raffle",
        "label": "s_entranceFee",
        "offset": 0,
        "slot": "5",
        "type": "t_uint256"
      },
      {
        "astId": 473,
        "contract": "contracts/Raffle.sol:Raffle",
        "label": "s_lastTimeStamp",
        "offset": 0,
        "slot": "6",
        "type": "t_uint256"
      },
      {
        "astId": 475,
        "contract": "contracts/Raffle.sol:Raffle",
        "label": "s_interval",
        "offset": 0,
        "slot": "7",
        "type": "t_uint256"
      },
      {
        "astId": 477,
        "contract": "contracts/Raffle.sol:Raffle",
        "label": "s_recentWinner",
        "offset": 0,
        "slot": "8",
        "type": "t_address"
      },
      {
        "astId": 480,
        "contract": "contracts/Raffle.sol:Raffle",
        "label": "s_players",
        "offset": 0,
        "slot": "9",
        "type": "t_array(t_address_payable)dyn_storage"
      }
    ],
    "types": {
      "t_address": {
        "encoding": "inplace",
        "label": "address",
        "numberOfBytes": "20"
      },
      "t_address_payable": {
        "encoding": "inplace",
        "label": "address payable",
        "numberOfBytes": "20"
      },
      "t_array(t_address_payable)dyn_storage": {
        "base": "t_address_payable",
        "encoding": "dynamic_array",
        "label": "address payable[]",
        "numberOfBytes": "32"
      },
      "t_bytes32": {
        "encoding": "inplace",
        "label": "bytes32",
        "numberOfBytes": "32"
      },
      "t_mapping(t_bytes32,t_uint256)": {
        "encoding": "mapping",
        "key": "t_bytes32",
        "label": "mapping(bytes32 => uint256)",
        "numberOfBytes": "32",
        "value": "t_uint256"
      },
      "t_uint256": {
        "encoding": "inplace",
        "label": "uint256",
        "numberOfBytes": "32"
      }
    }
  }
}